{
    "_format": "hh-sol-artifact-1",
    "contractName": "Event",
    "sourceName": "contracts/Event.sol",
    "abi": [
        {
            "inputs": [
                {
                    "internalType": "string",
                    "name": "_eventName",
                    "type": "string"
                },
                {
                    "internalType": "uint256",
                    "name": "_dateOfEvent",
                    "type": "uint256"
                },
                {
                    "internalType": "string",
                    "name": "_location",
                    "type": "string"
                },
                {
                    "internalType": "uint256",
                    "name": "_maxNumOfTickets",
                    "type": "uint256"
                },
                {
                    "internalType": "uint256",
                    "name": "_ticketPrice",
                    "type": "uint256"
                },
                {
                    "internalType": "address",
                    "name": "_owner",
                    "type": "address"
                },
                {
                    "internalType": "string",
                    "name": "_eventImageURL",
                    "type": "string"
                }
            ],
            "stateMutability": "nonpayable",
            "type": "constructor"
        },
        {
            "anonymous": false,
            "inputs": [
                {
                    "indexed": true,
                    "internalType": "address",
                    "name": "owner",
                    "type": "address"
                },
                {
                    "indexed": true,
                    "internalType": "address",
                    "name": "approved",
                    "type": "address"
                },
                {
                    "indexed": true,
                    "internalType": "uint256",
                    "name": "tokenId",
                    "type": "uint256"
                }
            ],
            "name": "Approval",
            "type": "event"
        },
        {
            "anonymous": false,
            "inputs": [
                {
                    "indexed": true,
                    "internalType": "address",
                    "name": "owner",
                    "type": "address"
                },
                {
                    "indexed": true,
                    "internalType": "address",
                    "name": "operator",
                    "type": "address"
                },
                {
                    "indexed": false,
                    "internalType": "bool",
                    "name": "approved",
                    "type": "bool"
                }
            ],
            "name": "ApprovalForAll",
            "type": "event"
        },
        {
            "anonymous": false,
            "inputs": [
                {
                    "indexed": true,
                    "internalType": "address",
                    "name": "buyerAddress",
                    "type": "address"
                },
                {
                    "indexed": true,
                    "internalType": "uint256",
                    "name": "ticketId",
                    "type": "uint256"
                }
            ],
            "name": "TicketRedeemed",
            "type": "event"
        },
        {
            "anonymous": false,
            "inputs": [
                {
                    "indexed": true,
                    "internalType": "address",
                    "name": "buyerAddress",
                    "type": "address"
                },
                {
                    "indexed": false,
                    "internalType": "uint256",
                    "name": "ticketId",
                    "type": "uint256"
                }
            ],
            "name": "TicketSold",
            "type": "event"
        },
        {
            "anonymous": false,
            "inputs": [
                {
                    "indexed": true,
                    "internalType": "address",
                    "name": "from",
                    "type": "address"
                },
                {
                    "indexed": true,
                    "internalType": "address",
                    "name": "to",
                    "type": "address"
                },
                {
                    "indexed": true,
                    "internalType": "uint256",
                    "name": "tokenId",
                    "type": "uint256"
                }
            ],
            "name": "Transfer",
            "type": "event"
        },
        {
            "inputs": [
                {
                    "internalType": "address",
                    "name": "to",
                    "type": "address"
                },
                {
                    "internalType": "uint256",
                    "name": "tokenId",
                    "type": "uint256"
                }
            ],
            "name": "approve",
            "outputs": [],
            "stateMutability": "nonpayable",
            "type": "function"
        },
        {
            "inputs": [
                {
                    "internalType": "address",
                    "name": "owner",
                    "type": "address"
                }
            ],
            "name": "balanceOf",
            "outputs": [
                {
                    "internalType": "uint256",
                    "name": "",
                    "type": "uint256"
                }
            ],
            "stateMutability": "view",
            "type": "function"
        },
        {
            "inputs": [],
            "name": "dateOfEvent",
            "outputs": [
                {
                    "internalType": "uint256",
                    "name": "",
                    "type": "uint256"
                }
            ],
            "stateMutability": "view",
            "type": "function"
        },
        {
            "inputs": [],
            "name": "eventImageURL",
            "outputs": [
                {
                    "internalType": "string",
                    "name": "",
                    "type": "string"
                }
            ],
            "stateMutability": "view",
            "type": "function"
        },
        {
            "inputs": [],
            "name": "eventName",
            "outputs": [
                {
                    "internalType": "string",
                    "name": "",
                    "type": "string"
                }
            ],
            "stateMutability": "view",
            "type": "function"
        },
        {
            "inputs": [
                {
                    "internalType": "uint256",
                    "name": "tokenId",
                    "type": "uint256"
                }
            ],
            "name": "getApproved",
            "outputs": [
                {
                    "internalType": "address",
                    "name": "",
                    "type": "address"
                }
            ],
            "stateMutability": "view",
            "type": "function"
        },
        {
            "inputs": [
                {
                    "internalType": "address",
                    "name": "owner",
                    "type": "address"
                },
                {
                    "internalType": "address",
                    "name": "operator",
                    "type": "address"
                }
            ],
            "name": "isApprovedForAll",
            "outputs": [
                {
                    "internalType": "bool",
                    "name": "",
                    "type": "bool"
                }
            ],
            "stateMutability": "view",
            "type": "function"
        },
        {
            "inputs": [],
            "name": "location",
            "outputs": [
                {
                    "internalType": "string",
                    "name": "",
                    "type": "string"
                }
            ],
            "stateMutability": "view",
            "type": "function"
        },
        {
            "inputs": [],
            "name": "maxNumOfTickets",
            "outputs": [
                {
                    "internalType": "uint256",
                    "name": "",
                    "type": "uint256"
                }
            ],
            "stateMutability": "view",
            "type": "function"
        },
        {
            "inputs": [],
            "name": "mint",
            "outputs": [
                {
                    "internalType": "bool",
                    "name": "",
                    "type": "bool"
                }
            ],
            "stateMutability": "payable",
            "type": "function"
        },
        {
            "inputs": [],
            "name": "name",
            "outputs": [
                {
                    "internalType": "string",
                    "name": "",
                    "type": "string"
                }
            ],
            "stateMutability": "view",
            "type": "function"
        },
        {
            "inputs": [],
            "name": "owner",
            "outputs": [
                {
                    "internalType": "address",
                    "name": "",
                    "type": "address"
                }
            ],
            "stateMutability": "view",
            "type": "function"
        },
        {
            "inputs": [
                {
                    "internalType": "uint256",
                    "name": "tokenId",
                    "type": "uint256"
                }
            ],
            "name": "ownerOf",
            "outputs": [
                {
                    "internalType": "address",
                    "name": "",
                    "type": "address"
                }
            ],
            "stateMutability": "view",
            "type": "function"
        },
        {
            "inputs": [
                {
                    "internalType": "uint256",
                    "name": "",
                    "type": "uint256"
                }
            ],
            "name": "redeemedTickets",
            "outputs": [
                {
                    "internalType": "bool",
                    "name": "",
                    "type": "bool"
                }
            ],
            "stateMutability": "view",
            "type": "function"
        },
        {
            "inputs": [],
            "name": "remainingTickets",
            "outputs": [
                {
                    "internalType": "uint256",
                    "name": "",
                    "type": "uint256"
                }
            ],
            "stateMutability": "view",
            "type": "function"
        },
        {
            "inputs": [
                {
                    "internalType": "address",
                    "name": "from",
                    "type": "address"
                },
                {
                    "internalType": "address",
                    "name": "to",
                    "type": "address"
                },
                {
                    "internalType": "uint256",
                    "name": "tokenId",
                    "type": "uint256"
                }
            ],
            "name": "safeTransferFrom",
            "outputs": [],
            "stateMutability": "nonpayable",
            "type": "function"
        },
        {
            "inputs": [
                {
                    "internalType": "address",
                    "name": "from",
                    "type": "address"
                },
                {
                    "internalType": "address",
                    "name": "to",
                    "type": "address"
                },
                {
                    "internalType": "uint256",
                    "name": "tokenId",
                    "type": "uint256"
                },
                {
                    "internalType": "bytes",
                    "name": "data",
                    "type": "bytes"
                }
            ],
            "name": "safeTransferFrom",
            "outputs": [],
            "stateMutability": "nonpayable",
            "type": "function"
        },
        {
            "inputs": [
                {
                    "internalType": "address",
                    "name": "operator",
                    "type": "address"
                },
                {
                    "internalType": "bool",
                    "name": "approved",
                    "type": "bool"
                }
            ],
            "name": "setApprovalForAll",
            "outputs": [],
            "stateMutability": "nonpayable",
            "type": "function"
        },
        {
            "inputs": [
                {
                    "internalType": "string",
                    "name": "_eventImageURL",
                    "type": "string"
                }
            ],
            "name": "setTokenURI",
            "outputs": [
                {
                    "internalType": "string",
                    "name": "",
                    "type": "string"
                }
            ],
            "stateMutability": "nonpayable",
            "type": "function"
        },
        {
            "inputs": [
                {
                    "internalType": "bytes4",
                    "name": "interfaceId",
                    "type": "bytes4"
                }
            ],
            "name": "supportsInterface",
            "outputs": [
                {
                    "internalType": "bool",
                    "name": "",
                    "type": "bool"
                }
            ],
            "stateMutability": "view",
            "type": "function"
        },
        {
            "inputs": [],
            "name": "symbol",
            "outputs": [
                {
                    "internalType": "string",
                    "name": "",
                    "type": "string"
                }
            ],
            "stateMutability": "view",
            "type": "function"
        },
        {
            "inputs": [],
            "name": "ticketPrice",
            "outputs": [
                {
                    "internalType": "uint256",
                    "name": "",
                    "type": "uint256"
                }
            ],
            "stateMutability": "view",
            "type": "function"
        },
        {
            "inputs": [
                {
                    "internalType": "uint256",
                    "name": "tokenId",
                    "type": "uint256"
                }
            ],
            "name": "tokenURI",
            "outputs": [
                {
                    "internalType": "string",
                    "name": "",
                    "type": "string"
                }
            ],
            "stateMutability": "view",
            "type": "function"
        },
        {
            "inputs": [
                {
                    "internalType": "address",
                    "name": "from",
                    "type": "address"
                },
                {
                    "internalType": "address",
                    "name": "to",
                    "type": "address"
                },
                {
                    "internalType": "uint256",
                    "name": "tokenId",
                    "type": "uint256"
                }
            ],
            "name": "transferFrom",
            "outputs": [],
            "stateMutability": "nonpayable",
            "type": "function"
        },
        {
            "inputs": [
                {
                    "internalType": "uint256",
                    "name": "_id",
                    "type": "uint256"
                },
                {
                    "internalType": "address",
                    "name": "_owner",
                    "type": "address"
                },
                {
                    "internalType": "bytes",
                    "name": "_signature",
                    "type": "bytes"
                }
            ],
            "name": "verifyTicket",
            "outputs": [
                {
                    "internalType": "bool",
                    "name": "",
                    "type": "bool"
                }
            ],
            "stateMutability": "nonpayable",
            "type": "function"
        },
        {
            "inputs": [],
            "name": "withdraw",
            "outputs": [],
            "stateMutability": "nonpayable",
            "type": "function"
        }
    ],
    "bytecode": "0x60806040523480156200001157600080fd5b5060405162003e7438038062003e7483398181016040528101906200003791906200043d565b866040518060400160405280600481526020017f5449434b0000000000000000000000000000000000000000000000000000000081525081600090805190602001906200008692919062000150565b5080600190805190602001906200009f92919062000150565b505050856009819055508460079080519060200190620000c192919062000150565b5083600a8190555082600b8190555081600c60006101000a81548173ffffffffffffffffffffffffffffffffffffffff021916908373ffffffffffffffffffffffffffffffffffffffff16021790555080600890805190602001906200012992919062000150565b5086600d90805190602001906200014292919062000150565b5050505050505050620005b2565b8280546200015e906200057c565b90600052602060002090601f016020900481019282620001825760008555620001ce565b82601f106200019d57805160ff1916838001178555620001ce565b82800160010185558215620001ce579182015b82811115620001cd578251825591602001919060010190620001b0565b5b509050620001dd9190620001e1565b5090565b5b80821115620001fc576000816000905550600101620001e2565b5090565b6000604051905090565b600080fd5b600080fd5b600080fd5b600080fd5b6000601f19601f8301169050919050565b7f4e487b7100000000000000000000000000000000000000000000000000000000600052604160045260246000fd5b62000269826200021e565b810181811067ffffffffffffffff821117156200028b576200028a6200022f565b5b80604052505050565b6000620002a062000200565b9050620002ae82826200025e565b919050565b600067ffffffffffffffff821115620002d157620002d06200022f565b5b620002dc826200021e565b9050602081019050919050565b60005b8381101562000309578082015181840152602081019050620002ec565b8381111562000319576000848401525b50505050565b6000620003366200033084620002b3565b62000294565b90508281526020810184848401111562000355576200035462000219565b5b62000362848285620002e9565b509392505050565b600082601f83011262000382576200038162000214565b5b8151620003948482602086016200031f565b91505092915050565b6000819050919050565b620003b2816200039d565b8114620003be57600080fd5b50565b600081519050620003d281620003a7565b92915050565b600073ffffffffffffffffffffffffffffffffffffffff82169050919050565b60006200040582620003d8565b9050919050565b6200041781620003f8565b81146200042357600080fd5b50565b60008151905062000437816200040c565b92915050565b600080600080600080600060e0888a0312156200045f576200045e6200020a565b5b600088015167ffffffffffffffff81111562000480576200047f6200020f565b5b6200048e8a828b016200036a565b9750506020620004a18a828b01620003c1565b965050604088015167ffffffffffffffff811115620004c557620004c46200020f565b5b620004d38a828b016200036a565b9550506060620004e68a828b01620003c1565b9450506080620004f98a828b01620003c1565b93505060a06200050c8a828b0162000426565b92505060c088015167ffffffffffffffff81111562000530576200052f6200020f565b5b6200053e8a828b016200036a565b91505092959891949750929550565b7f4e487b7100000000000000000000000000000000000000000000000000000000600052602260045260246000fd5b600060028204905060018216806200059557607f821691505b60208210811415620005ac57620005ab6200054d565b5b50919050565b6138b280620005c26000396000f3fe6080604052600436106101815760003560e01c806370a08231116100d1578063ba46cfe91161008a578063cebd40ed11610064578063cebd40ed14610579578063e0df5b6f146105a4578063e4adaf9b146105e1578063e985e9c51461061e57610181565b8063ba46cfe9146104e6578063c87b56dd14610511578063c943c1281461054e57610181565b806370a08231146103d65780638043c9c0146104135780638da5cb5b1461043e57806395d89b4114610469578063a22cb46514610494578063b88d4fde146104bd57610181565b806323b872dd1161013e57806342842e0e1161011857806342842e0e1461031a578063516f279e146103435780635d5048321461036e5780636352211e1461039957610181565b806323b872dd1461029d57806336f5db49146102c65780633ccfd60b1461030357610181565b806301ffc9a71461018657806306fdde03146101c3578063081812fc146101ee578063095ea7b31461022b5780631209b1f6146102545780631249c58b1461027f575b600080fd5b34801561019257600080fd5b506101ad60048036038101906101a89190612401565b61065b565b6040516101ba9190612449565b60405180910390f35b3480156101cf57600080fd5b506101d861073d565b6040516101e591906124fd565b60405180910390f35b3480156101fa57600080fd5b5061021560048036038101906102109190612555565b6107cf565b60405161022291906125c3565b60405180910390f35b34801561023757600080fd5b50610252600480360381019061024d919061260a565b610815565b005b34801561026057600080fd5b5061026961092d565b6040516102769190612659565b60405180910390f35b610287610933565b6040516102949190612449565b60405180910390f35b3480156102a957600080fd5b506102c460048036038101906102bf9190612674565b610a3f565b005b3480156102d257600080fd5b506102ed60048036038101906102e891906127fc565b610a9f565b6040516102fa9190612449565b60405180910390f35b34801561030f57600080fd5b50610318610dd5565b005b34801561032657600080fd5b50610341600480360381019061033c9190612674565b610f14565b005b34801561034f57600080fd5b50610358610f34565b60405161036591906124fd565b60405180910390f35b34801561037a57600080fd5b50610383610fc2565b6040516103909190612659565b60405180910390f35b3480156103a557600080fd5b506103c060048036038101906103bb9190612555565b610fe0565b6040516103cd91906125c3565b60405180910390f35b3480156103e257600080fd5b506103fd60048036038101906103f8919061286b565b611092565b60405161040a9190612659565b60405180910390f35b34801561041f57600080fd5b5061042861114a565b60405161043591906124fd565b60405180910390f35b34801561044a57600080fd5b506104536111d8565b60405161046091906125c3565b60405180910390f35b34801561047557600080fd5b5061047e6111fe565b60405161048b91906124fd565b60405180910390f35b3480156104a057600080fd5b506104bb60048036038101906104b691906128c4565b611290565b005b3480156104c957600080fd5b506104e460048036038101906104df9190612904565b6112a6565b005b3480156104f257600080fd5b506104fb611308565b6040516105089190612659565b60405180910390f35b34801561051d57600080fd5b5061053860048036038101906105339190612555565b61130e565b60405161054591906124fd565b60405180910390f35b34801561055a57600080fd5b506105636113ea565b6040516105709190612659565b60405180910390f35b34801561058557600080fd5b5061058e6113f0565b60405161059b91906124fd565b60405180910390f35b3480156105b057600080fd5b506105cb60048036038101906105c69190612a28565b61147e565b6040516105d891906124fd565b60405180910390f35b3480156105ed57600080fd5b5061060860048036038101906106039190612555565b6115b9565b6040516106159190612449565b60405180910390f35b34801561062a57600080fd5b5061064560048036038101906106409190612a71565b6115d9565b6040516106529190612449565b60405180910390f35b60007f80ac58cd000000000000000000000000000000000000000000000000000000007bffffffffffffffffffffffffffffffffffffffffffffffffffffffff1916827bffffffffffffffffffffffffffffffffffffffffffffffffffffffff1916148061072657507f5b5e139f000000000000000000000000000000000000000000000000000000007bffffffffffffffffffffffffffffffffffffffffffffffffffffffff1916827bffffffffffffffffffffffffffffffffffffffffffffffffffffffff1916145b8061073657506107358261166d565b5b9050919050565b60606000805461074c90612ae0565b80601f016020809104026020016040519081016040528092919081815260200182805461077890612ae0565b80156107c55780601f1061079a576101008083540402835291602001916107c5565b820191906000526020600020905b8154815290600101906020018083116107a857829003601f168201915b5050505050905090565b60006107da826116d7565b6004600083815260200190815260200160002060009054906101000a900473ffffffffffffffffffffffffffffffffffffffff169050919050565b600061082082610fe0565b90508073ffffffffffffffffffffffffffffffffffffffff168373ffffffffffffffffffffffffffffffffffffffff161415610891576040517f08c379a000000000000000000000000000000000000000000000000000000000815260040161088890612b84565b60405180910390fd5b8073ffffffffffffffffffffffffffffffffffffffff166108b0611722565b73ffffffffffffffffffffffffffffffffffffffff1614806108df57506108de816108d9611722565b6115d9565b5b61091e576040517f08c379a000000000000000000000000000000000000000000000000000000000815260040161091590612c16565b60405180910390fd5b610928838361172a565b505050565b600b5481565b6000600a5461094260066117e3565b10610982576040517f08c379a000000000000000000000000000000000000000000000000000000000815260040161097990612c82565b60405180910390fd5b600b543410156109c7576040517f08c379a00000000000000000000000000000000000000000000000000000000081526004016109be90612d14565b60405180910390fd5b6109d160066117f1565b60006109dd60066117e3565b90506109e93382611807565b3373ffffffffffffffffffffffffffffffffffffffff167f8ef92257fbc070823c8bb4051ff3a58b831946d893fbb1bfd9bc77b87ff77d0982604051610a2f9190612659565b60405180910390a2600191505090565b610a50610a4a611722565b826119e1565b610a8f576040517f08c379a0000000000000000000000000000000000000000000000000000000008152600401610a8690612da6565b60405180910390fd5b610a9a838383611a76565b505050565b6000600e600085815260200190815260200160002060009054906101000a900460ff1615610b02576040517f08c379a0000000000000000000000000000000000000000000000000000000008152600401610af990612e12565b60405180910390fd5b6000610b0d85611cdd565b604051602001610b1d9190612e6e565b60405160208183030381529060405290506000610b3984611e3e565b905060006040518060400160405280602081526020017f19457468657265756d205369676e6564204d6573736167653a0a303030303030815250905060008084519050603983019150620f423f811115610b9257600080fd5b600080620186a090505b60008114610c385760008184610bb29190612ee3565b90506000811415610bdc576000831415610bdb57600a82610bd39190612ee3565b915050610b9c565b5b8280610be790612f14565b9350508181610bf69190612f5d565b84610c019190612fb7565b9350600a82610c109190612ee3565b9150603081610c1f9190612feb565b90508480610c2c90612f14565b95505080855350610b9c565b6000821415610c4a57601b9150610c5a565b601a82610c579190612feb565b91505b81855260008588604051602001610c72929190613041565b604051602081830303815290604052805190602001209050600181886040015189600001518a6020015160405160008152602001604052604051610cb9949392919061309a565b6020604051602081039080840390855afa158015610cdb573d6000803e3d6000fd5b5050506020604051035173ffffffffffffffffffffffffffffffffffffffff168b73ffffffffffffffffffffffffffffffffffffffff1614610d52576040517f08c379a0000000000000000000000000000000000000000000000000000000008152600401610d499061312b565b60405180910390fd5b6001600e60008e815260200190815260200160002060006101000a81548160ff0219169083151502179055508b8b73ffffffffffffffffffffffffffffffffffffffff167f04c83e3a48b8728bb2e4bf1933322209bd98584759a94f66ef94275e0bf770de60405160405180910390a36001985050505050505050509392505050565b600c60009054906101000a900473ffffffffffffffffffffffffffffffffffffffff1673ffffffffffffffffffffffffffffffffffffffff163373ffffffffffffffffffffffffffffffffffffffff1614610e65576040517f08c379a0000000000000000000000000000000000000000000000000000000008152600401610e5c90613197565b60405180910390fd5b60003373ffffffffffffffffffffffffffffffffffffffff1647604051610e8b906131e8565b60006040518083038185875af1925050503d8060008114610ec8576040519150601f19603f3d011682016040523d82523d6000602084013e610ecd565b606091505b5050905080610f11576040517f08c379a0000000000000000000000000000000000000000000000000000000008152600401610f0890613249565b60405180910390fd5b50565b610f2f838383604051806020016040528060008152506112a6565b505050565b60078054610f4190612ae0565b80601f0160208091040260200160405190810160405280929190818152602001828054610f6d90612ae0565b8015610fba5780601f10610f8f57610100808354040283529160200191610fba565b820191906000526020600020905b815481529060010190602001808311610f9d57829003601f168201915b505050505081565b6000610fce60066117e3565b600a54610fdb9190612fb7565b905090565b6000806002600084815260200190815260200160002060009054906101000a900473ffffffffffffffffffffffffffffffffffffffff169050600073ffffffffffffffffffffffffffffffffffffffff168173ffffffffffffffffffffffffffffffffffffffff161415611089576040517f08c379a0000000000000000000000000000000000000000000000000000000008152600401611080906132b5565b60405180910390fd5b80915050919050565b60008073ffffffffffffffffffffffffffffffffffffffff168273ffffffffffffffffffffffffffffffffffffffff161415611103576040517f08c379a00000000000000000000000000000000000000000000000000000000081526004016110fa90613347565b60405180910390fd5b600360008373ffffffffffffffffffffffffffffffffffffffff1673ffffffffffffffffffffffffffffffffffffffff168152602001908152602001600020549050919050565b600d805461115790612ae0565b80601f016020809104026020016040519081016040528092919081815260200182805461118390612ae0565b80156111d05780601f106111a5576101008083540402835291602001916111d0565b820191906000526020600020905b8154815290600101906020018083116111b357829003601f168201915b505050505081565b600c60009054906101000a900473ffffffffffffffffffffffffffffffffffffffff1681565b60606001805461120d90612ae0565b80601f016020809104026020016040519081016040528092919081815260200182805461123990612ae0565b80156112865780601f1061125b57610100808354040283529160200191611286565b820191906000526020600020905b81548152906001019060200180831161126957829003601f168201915b5050505050905090565b6112a261129b611722565b8383611ecf565b5050565b6112b76112b1611722565b836119e1565b6112f6576040517f08c379a00000000000000000000000000000000000000000000000000000000081526004016112ed90612da6565b60405180910390fd5b6113028484848461203c565b50505050565b60095481565b606061131982612098565b611358576040517f08c379a000000000000000000000000000000000000000000000000000000000815260040161134f906133b3565b60405180910390fd5b6008805461136590612ae0565b80601f016020809104026020016040519081016040528092919081815260200182805461139190612ae0565b80156113de5780601f106113b3576101008083540402835291602001916113de565b820191906000526020600020905b8154815290600101906020018083116113c157829003601f168201915b50505050509050919050565b600a5481565b600880546113fd90612ae0565b80601f016020809104026020016040519081016040528092919081815260200182805461142990612ae0565b80156114765780601f1061144b57610100808354040283529160200191611476565b820191906000526020600020905b81548152906001019060200180831161145957829003601f168201915b505050505081565b6060600c60009054906101000a900473ffffffffffffffffffffffffffffffffffffffff1673ffffffffffffffffffffffffffffffffffffffff163373ffffffffffffffffffffffffffffffffffffffff1614611510576040517f08c379a000000000000000000000000000000000000000000000000000000000815260040161150790613197565b60405180910390fd5b81600890805190602001906115269291906122c8565b506008805461153490612ae0565b80601f016020809104026020016040519081016040528092919081815260200182805461156090612ae0565b80156115ad5780601f10611582576101008083540402835291602001916115ad565b820191906000526020600020905b81548152906001019060200180831161159057829003601f168201915b50505050509050919050565b600e6020528060005260406000206000915054906101000a900460ff1681565b6000600560008473ffffffffffffffffffffffffffffffffffffffff1673ffffffffffffffffffffffffffffffffffffffff16815260200190815260200160002060008373ffffffffffffffffffffffffffffffffffffffff1673ffffffffffffffffffffffffffffffffffffffff16815260200190815260200160002060009054906101000a900460ff16905092915050565b60007f01ffc9a7000000000000000000000000000000000000000000000000000000007bffffffffffffffffffffffffffffffffffffffffffffffffffffffff1916827bffffffffffffffffffffffffffffffffffffffffffffffffffffffff1916149050919050565b6116e081612098565b61171f576040517f08c379a0000000000000000000000000000000000000000000000000000000008152600401611716906132b5565b60405180910390fd5b50565b600033905090565b816004600083815260200190815260200160002060006101000a81548173ffffffffffffffffffffffffffffffffffffffff021916908373ffffffffffffffffffffffffffffffffffffffff160217905550808273ffffffffffffffffffffffffffffffffffffffff1661179d83610fe0565b73ffffffffffffffffffffffffffffffffffffffff167f8c5be1e5ebec7d5bd14f71427d1e84f3dd0314c0f7b2291e5b200ac8c7c3b92560405160405180910390a45050565b600081600001549050919050565b6001816000016000828254019250508190555050565b600073ffffffffffffffffffffffffffffffffffffffff168273ffffffffffffffffffffffffffffffffffffffff161415611877576040517f08c379a000000000000000000000000000000000000000000000000000000000815260040161186e9061341f565b60405180910390fd5b61188081612098565b156118c0576040517f08c379a00000000000000000000000000000000000000000000000000000000081526004016118b79061348b565b60405180910390fd5b6118cc60008383612104565b6001600360008473ffffffffffffffffffffffffffffffffffffffff1673ffffffffffffffffffffffffffffffffffffffff168152602001908152602001600020600082825461191c9190612feb565b92505081905550816002600083815260200190815260200160002060006101000a81548173ffffffffffffffffffffffffffffffffffffffff021916908373ffffffffffffffffffffffffffffffffffffffff160217905550808273ffffffffffffffffffffffffffffffffffffffff16600073ffffffffffffffffffffffffffffffffffffffff167fddf252ad1be2c89b69c2b068fc378daa952ba7f163c4a11628f55a4df523b3ef60405160405180910390a46119dd60008383612109565b5050565b6000806119ed83610fe0565b90508073ffffffffffffffffffffffffffffffffffffffff168473ffffffffffffffffffffffffffffffffffffffff161480611a2f5750611a2e81856115d9565b5b80611a6d57508373ffffffffffffffffffffffffffffffffffffffff16611a55846107cf565b73ffffffffffffffffffffffffffffffffffffffff16145b91505092915050565b8273ffffffffffffffffffffffffffffffffffffffff16611a9682610fe0565b73ffffffffffffffffffffffffffffffffffffffff1614611aec576040517f08c379a0000000000000000000000000000000000000000000000000000000008152600401611ae39061351d565b60405180910390fd5b600073ffffffffffffffffffffffffffffffffffffffff168273ffffffffffffffffffffffffffffffffffffffff161415611b5c576040517f08c379a0000000000000000000000000000000000000000000000000000000008152600401611b53906135af565b60405180910390fd5b611b67838383612104565b611b7260008261172a565b6001600360008573ffffffffffffffffffffffffffffffffffffffff1673ffffffffffffffffffffffffffffffffffffffff1681526020019081526020016000206000828254611bc29190612fb7565b925050819055506001600360008473ffffffffffffffffffffffffffffffffffffffff1673ffffffffffffffffffffffffffffffffffffffff1681526020019081526020016000206000828254611c199190612feb565b92505081905550816002600083815260200190815260200160002060006101000a81548173ffffffffffffffffffffffffffffffffffffffff021916908373ffffffffffffffffffffffffffffffffffffffff160217905550808273ffffffffffffffffffffffffffffffffffffffff168473ffffffffffffffffffffffffffffffffffffffff167fddf252ad1be2c89b69c2b068fc378daa952ba7f163c4a11628f55a4df523b3ef60405160405180910390a4611cd8838383612109565b505050565b60606000821415611d25576040518060400160405280600181526020017f30000000000000000000000000000000000000000000000000000000000000008152509050611e39565b600082905060005b60008214611d57578080611d4090612f14565b915050600a82611d509190612ee3565b9150611d2d565b60008167ffffffffffffffff811115611d7357611d726126d1565b5b6040519080825280601f01601f191660200182016040528015611da55781602001600182028036833780820191505090505b5090505b60008514611e3257600182611dbe9190612fb7565b9150600a85611dcd91906135cf565b6030611dd99190612feb565b60f81b818381518110611def57611dee613600565b5b60200101907effffffffffffffffffffffffffffffffffffffffffffffffffffffffffffff1916908160001a905350600a85611e2b9190612ee3565b9450611da9565b8093505050505b919050565b611e4661234e565b6041825114611e8a576040517f08c379a0000000000000000000000000000000000000000000000000000000008152600401611e819061367b565b60405180910390fd5b60008060006020850151925060408501519150606085015160001a905060405180606001604052808481526020018381526020018260ff168152509350505050919050565b8173ffffffffffffffffffffffffffffffffffffffff168373ffffffffffffffffffffffffffffffffffffffff161415611f3e576040517f08c379a0000000000000000000000000000000000000000000000000000000008152600401611f35906136e7565b60405180910390fd5b80600560008573ffffffffffffffffffffffffffffffffffffffff1673ffffffffffffffffffffffffffffffffffffffff16815260200190815260200160002060008473ffffffffffffffffffffffffffffffffffffffff1673ffffffffffffffffffffffffffffffffffffffff16815260200190815260200160002060006101000a81548160ff0219169083151502179055508173ffffffffffffffffffffffffffffffffffffffff168373ffffffffffffffffffffffffffffffffffffffff167f17307eab39ab6107e8899845ad3d59bd9653f200f220920489ca2b5937696c318360405161202f9190612449565b60405180910390a3505050565b612047848484611a76565b6120538484848461210e565b612092576040517f08c379a000000000000000000000000000000000000000000000000000000000815260040161208990613779565b60405180910390fd5b50505050565b60008073ffffffffffffffffffffffffffffffffffffffff166002600084815260200190815260200160002060009054906101000a900473ffffffffffffffffffffffffffffffffffffffff1673ffffffffffffffffffffffffffffffffffffffff1614159050919050565b505050565b505050565b600061212f8473ffffffffffffffffffffffffffffffffffffffff166122a5565b15612298578373ffffffffffffffffffffffffffffffffffffffff1663150b7a02612158611722565b8786866040518563ffffffff1660e01b815260040161217a94939291906137ee565b602060405180830381600087803b15801561219457600080fd5b505af19250505080156121c557506040513d601f19601f820116820180604052508101906121c2919061384f565b60015b612248573d80600081146121f5576040519150601f19603f3d011682016040523d82523d6000602084013e6121fa565b606091505b50600081511415612240576040517f08c379a000000000000000000000000000000000000000000000000000000000815260040161223790613779565b60405180910390fd5b805181602001fd5b63150b7a0260e01b7bffffffffffffffffffffffffffffffffffffffffffffffffffffffff1916817bffffffffffffffffffffffffffffffffffffffffffffffffffffffff19161491505061229d565b600190505b949350505050565b6000808273ffffffffffffffffffffffffffffffffffffffff163b119050919050565b8280546122d490612ae0565b90600052602060002090601f0160209004810192826122f6576000855561233d565b82601f1061230f57805160ff191683800117855561233d565b8280016001018555821561233d579182015b8281111561233c578251825591602001919060010190612321565b5b50905061234a9190612378565b5090565b60405180606001604052806000801916815260200160008019168152602001600060ff1681525090565b5b80821115612391576000816000905550600101612379565b5090565b6000604051905090565b600080fd5b600080fd5b60007fffffffff0000000000000000000000000000000000000000000000000000000082169050919050565b6123de816123a9565b81146123e957600080fd5b50565b6000813590506123fb816123d5565b92915050565b6000602082840312156124175761241661239f565b5b6000612425848285016123ec565b91505092915050565b60008115159050919050565b6124438161242e565b82525050565b600060208201905061245e600083018461243a565b92915050565b600081519050919050565b600082825260208201905092915050565b60005b8381101561249e578082015181840152602081019050612483565b838111156124ad576000848401525b50505050565b6000601f19601f8301169050919050565b60006124cf82612464565b6124d9818561246f565b93506124e9818560208601612480565b6124f2816124b3565b840191505092915050565b6000602082019050818103600083015261251781846124c4565b905092915050565b6000819050919050565b6125328161251f565b811461253d57600080fd5b50565b60008135905061254f81612529565b92915050565b60006020828403121561256b5761256a61239f565b5b600061257984828501612540565b91505092915050565b600073ffffffffffffffffffffffffffffffffffffffff82169050919050565b60006125ad82612582565b9050919050565b6125bd816125a2565b82525050565b60006020820190506125d860008301846125b4565b92915050565b6125e7816125a2565b81146125f257600080fd5b50565b600081359050612604816125de565b92915050565b600080604083850312156126215761262061239f565b5b600061262f858286016125f5565b925050602061264085828601612540565b9150509250929050565b6126538161251f565b82525050565b600060208201905061266e600083018461264a565b92915050565b60008060006060848603121561268d5761268c61239f565b5b600061269b868287016125f5565b93505060206126ac868287016125f5565b92505060406126bd86828701612540565b9150509250925092565b600080fd5b600080fd5b7f4e487b7100000000000000000000000000000000000000000000000000000000600052604160045260246000fd5b612709826124b3565b810181811067ffffffffffffffff82111715612728576127276126d1565b5b80604052505050565b600061273b612395565b90506127478282612700565b919050565b600067ffffffffffffffff821115612767576127666126d1565b5b612770826124b3565b9050602081019050919050565b82818337600083830152505050565b600061279f61279a8461274c565b612731565b9050828152602081018484840111156127bb576127ba6126cc565b5b6127c684828561277d565b509392505050565b600082601f8301126127e3576127e26126c7565b5b81356127f384826020860161278c565b91505092915050565b6000806000606084860312156128155761281461239f565b5b600061282386828701612540565b9350506020612834868287016125f5565b925050604084013567ffffffffffffffff811115612855576128546123a4565b5b612861868287016127ce565b9150509250925092565b6000602082840312156128815761288061239f565b5b600061288f848285016125f5565b91505092915050565b6128a18161242e565b81146128ac57600080fd5b50565b6000813590506128be81612898565b92915050565b600080604083850312156128db576128da61239f565b5b60006128e9858286016125f5565b92505060206128fa858286016128af565b9150509250929050565b6000806000806080858703121561291e5761291d61239f565b5b600061292c878288016125f5565b945050602061293d878288016125f5565b935050604061294e87828801612540565b925050606085013567ffffffffffffffff81111561296f5761296e6123a4565b5b61297b878288016127ce565b91505092959194509250565b600067ffffffffffffffff8211156129a2576129a16126d1565b5b6129ab826124b3565b9050602081019050919050565b60006129cb6129c684612987565b612731565b9050828152602081018484840111156129e7576129e66126cc565b5b6129f284828561277d565b509392505050565b600082601f830112612a0f57612a0e6126c7565b5b8135612a1f8482602086016129b8565b91505092915050565b600060208284031215612a3e57612a3d61239f565b5b600082013567ffffffffffffffff811115612a5c57612a5b6123a4565b5b612a68848285016129fa565b91505092915050565b60008060408385031215612a8857612a8761239f565b5b6000612a96858286016125f5565b9250506020612aa7858286016125f5565b9150509250929050565b7f4e487b7100000000000000000000000000000000000000000000000000000000600052602260045260246000fd5b60006002820490506001821680612af857607f821691505b60208210811415612b0c57612b0b612ab1565b5b50919050565b7f4552433732313a20617070726f76616c20746f2063757272656e74206f776e6560008201527f7200000000000000000000000000000000000000000000000000000000000000602082015250565b6000612b6e60218361246f565b9150612b7982612b12565b604082019050919050565b60006020820190508181036000830152612b9d81612b61565b9050919050565b7f4552433732313a20617070726f76652063616c6c6572206973206e6f7420746f60008201527f6b656e206f776e6572206e6f7220617070726f76656420666f7220616c6c0000602082015250565b6000612c00603e8361246f565b9150612c0b82612ba4565b604082019050919050565b60006020820190508181036000830152612c2f81612bf3565b9050919050565b7f736f6c64206f7574000000000000000000000000000000000000000000000000600082015250565b6000612c6c60088361246f565b9150612c7782612c36565b602082019050919050565b60006020820190508181036000830152612c9b81612c5f565b9050919050565b7f4574682073656e74206973206c657373207468616e207469636b65742070726960008201527f6365000000000000000000000000000000000000000000000000000000000000602082015250565b6000612cfe60228361246f565b9150612d0982612ca2565b604082019050919050565b60006020820190508181036000830152612d2d81612cf1565b9050919050565b7f4552433732313a2063616c6c6572206973206e6f7420746f6b656e206f776e6560008201527f72206e6f7220617070726f766564000000000000000000000000000000000000602082015250565b6000612d90602e8361246f565b9150612d9b82612d34565b604082019050919050565b60006020820190508181036000830152612dbf81612d83565b9050919050565b7f7469636b657420616c72656164792072656465656d6564000000000000000000600082015250565b6000612dfc60178361246f565b9150612e0782612dc6565b602082019050919050565b60006020820190508181036000830152612e2b81612def565b9050919050565b600081905092915050565b6000612e4882612464565b612e528185612e32565b9350612e62818560208601612480565b80840191505092915050565b6000612e7a8284612e3d565b915081905092915050565b7f4e487b7100000000000000000000000000000000000000000000000000000000600052601260045260246000fd5b7f4e487b7100000000000000000000000000000000000000000000000000000000600052601160045260246000fd5b6000612eee8261251f565b9150612ef98361251f565b925082612f0957612f08612e85565b5b828204905092915050565b6000612f1f8261251f565b91507fffffffffffffffffffffffffffffffffffffffffffffffffffffffffffffffff821415612f5257612f51612eb4565b5b600182019050919050565b6000612f688261251f565b9150612f738361251f565b9250817fffffffffffffffffffffffffffffffffffffffffffffffffffffffffffffffff0483118215151615612fac57612fab612eb4565b5b828202905092915050565b6000612fc28261251f565b9150612fcd8361251f565b925082821015612fe057612fdf612eb4565b5b828203905092915050565b6000612ff68261251f565b91506130018361251f565b9250827fffffffffffffffffffffffffffffffffffffffffffffffffffffffffffffffff0382111561303657613035612eb4565b5b828201905092915050565b600061304d8285612e3d565b91506130598284612e3d565b91508190509392505050565b6000819050919050565b61307881613065565b82525050565b600060ff82169050919050565b6130948161307e565b82525050565b60006080820190506130af600083018761306f565b6130bc602083018661308b565b6130c9604083018561306f565b6130d6606083018461306f565b95945050505050565b7f696e76616c6964207469636b6574000000000000000000000000000000000000600082015250565b6000613115600e8361246f565b9150613120826130df565b602082019050919050565b6000602082019050818103600083015261314481613108565b9050919050565b7f6d757374206265206f776e657200000000000000000000000000000000000000600082015250565b6000613181600d8361246f565b915061318c8261314b565b602082019050919050565b600060208201905081810360008301526131b081613174565b9050919050565b600081905092915050565b50565b60006131d26000836131b7565b91506131dd826131c2565b600082019050919050565b60006131f3826131c5565b9150819050919050565b7f6661696c656420746f2077697468647261770000000000000000000000000000600082015250565b600061323360128361246f565b915061323e826131fd565b602082019050919050565b6000602082019050818103600083015261326281613226565b9050919050565b7f4552433732313a20696e76616c696420746f6b656e2049440000000000000000600082015250565b600061329f60188361246f565b91506132aa82613269565b602082019050919050565b600060208201905081810360008301526132ce81613292565b9050919050565b7f4552433732313a2061646472657373207a65726f206973206e6f74206120766160008201527f6c6964206f776e65720000000000000000000000000000000000000000000000602082015250565b600061333160298361246f565b915061333c826132d5565b604082019050919050565b6000602082019050818103600083015261336081613324565b9050919050565b7f55524920717565727920666f72206e6f6e6578697374656e7420746f6b656e00600082015250565b600061339d601f8361246f565b91506133a882613367565b602082019050919050565b600060208201905081810360008301526133cc81613390565b9050919050565b7f4552433732313a206d696e7420746f20746865207a65726f2061646472657373600082015250565b600061340960208361246f565b9150613414826133d3565b602082019050919050565b60006020820190508181036000830152613438816133fc565b9050919050565b7f4552433732313a20746f6b656e20616c7265616479206d696e74656400000000600082015250565b6000613475601c8361246f565b91506134808261343f565b602082019050919050565b600060208201905081810360008301526134a481613468565b9050919050565b7f4552433732313a207472616e736665722066726f6d20696e636f72726563742060008201527f6f776e6572000000000000000000000000000000000000000000000000000000602082015250565b600061350760258361246f565b9150613512826134ab565b604082019050919050565b60006020820190508181036000830152613536816134fa565b9050919050565b7f4552433732313a207472616e7366657220746f20746865207a65726f2061646460008201527f7265737300000000000000000000000000000000000000000000000000000000602082015250565b600061359960248361246f565b91506135a48261353d565b604082019050919050565b600060208201905081810360008301526135c88161358c565b9050919050565b60006135da8261251f565b91506135e58361251f565b9250826135f5576135f4612e85565b5b828206905092915050565b7f4e487b7100000000000000000000000000000000000000000000000000000000600052603260045260246000fd5b7f696e76616c6964207369676e6174757265206c656e6774680000000000000000600082015250565b600061366560188361246f565b91506136708261362f565b602082019050919050565b6000602082019050818103600083015261369481613658565b9050919050565b7f4552433732313a20617070726f766520746f2063616c6c657200000000000000600082015250565b60006136d160198361246f565b91506136dc8261369b565b602082019050919050565b60006020820190508181036000830152613700816136c4565b9050919050565b7f4552433732313a207472616e7366657220746f206e6f6e20455243373231526560008201527f63656976657220696d706c656d656e7465720000000000000000000000000000602082015250565b600061376360328361246f565b915061376e82613707565b604082019050919050565b6000602082019050818103600083015261379281613756565b9050919050565b600081519050919050565b600082825260208201905092915050565b60006137c082613799565b6137ca81856137a4565b93506137da818560208601612480565b6137e3816124b3565b840191505092915050565b600060808201905061380360008301876125b4565b61381060208301866125b4565b61381d604083018561264a565b818103606083015261382f81846137b5565b905095945050505050565b600081519050613849816123d5565b92915050565b6000602082840312156138655761386461239f565b5b60006138738482850161383a565b9150509291505056fea2646970667358221220741e49313df35fc98f6e89fe612f1f8e43eca47781aa6e8a6b607f858f742b2064736f6c63430008090033",
    "linkReferences": {},
    "deployedLinkReferences": {}
}